:100000000C9448000C9470000C9470000C947000D8
:100010000C9470000C9470000C9470000C947000A0
:100020000C9470000C9470000C9470000C94700090
:100030000C9470000C9470000C9470000C94700080
:100040000C9490040C9470000C945E040C9438048E
:100050000C9470000C9470000C9470000C94700060
:100060000C9470000C947000477261666F206EC330
:10007000A36F20706F737375692063616D696E681B
:100080006F20466C65757269616E6F210A00070703
:1000900011241FBECFEFD8E0DEBFCDBF28E0A8E11E
:1000A000B1E001C01D92A53AB207E1F711E0A0E06E
:1000B000B1E0ECE1FFE002C005900D92A831B1077C
:1000C000D9F710E0C8E4D0E004C02197FE010E94F7
:1000D0008607C734D107C9F70E94DA040C948C074D
:1000E0000C940000AF92BF92CF92DF92EF92FF92FA
:1000F0000F931F93CF93DF936C017B018B01040F50
:10010000151FEB015E01AE18BF08C017D10759F0EB
:100110006991D601ED91FC910190F081E02DC6012D
:100120000995892B79F7C501DF91CF911F910F9127
:10013000FF90EF90DF90CF90BF90AF900895FC01BB
:10014000538D448D252F30E0842F90E0821B930B3C
:10015000541710F0CF96089501970895FC01918DE2
:10016000828D981761F0A28DAE0FBF2FB11D5D96E5
:100170008C91928D9F5F9F73928F90E008958FEF87
:100180009FEF0895FC01918D828D981731F0828D3B
:10019000E80FF11D858D90E008958FEF9FEF089592
:1001A0002FB7F8948091040890910508A091060853
:1001B000B09107082FBF8093100890931108A09367
:1001C0001208B093130888E098E00E94C20097FFDD
:1001D00026C02FB7F8948091040890910508A0914B
:1001E0000608B09107082FBF4091100850911108E0
:1001F0006091120870911308841B950BA60BB70B26
:1002000040910C0850910D0860910E0870910F08F4
:1002100084179507A607B707B0F28FEF9FEF0895F1
:10022000CF92DF92EF92FF92CF930E94D000FC0119
:1002300097FD4EC08D32910521F0C0970A9708F0C6
:1002400040C0C12CD12C7601C0E0E130F105D1F0E5
:10025000ED32F105D9F1CF01C0970A9798F4AAE0E1
:10026000B0E0A70196010E944A076F01FF0FEE0858
:10027000FF08C60ED71EE81EF91E80E3C81AD10873
:10028000E108F10888E098E00E94AE000E94D000EA
:10029000FC01C0970A97C8F2E130F105B1F2CC2316
:1002A00041F0F094E094D094C094C11CD11CE11CA6
:1002B000F11CC701B601CF91FF90EF90DF90CF9076
:1002C000089588E098E00E94AE00AFCFC1E0DACF99
:1002D000C12CD12C7601EDCFFC01918D228D892F7F
:1002E00090E0805C9F4F821B91098F73992708953E
:1002F00088E098E00E946C0121E0892B09F420E05D
:10030000822F089580E090E0892B29F00E947801E7
:1003100081110C9400000895FC01A48DA80FB92F41
:10032000B11DA35ABF4F2C91848D90E001968F731D
:100330009927848FA689B7892C93A089B1898C913C
:10034000837080648C93938D848D981306C002888B
:10035000F389E02D80818F7D80830895EF92FF9255
:100360000F931F93CF93DF93EC0181E0888F9B8DD8
:100370008C8D98131AC0E889F989808185FF15C092
:100380009FB7F894EE89FF896083E889F9898081B5
:100390008370806480839FBF81E090E0DF91CF9184
:1003A0001F910F91FF90EF900895F62E0B8D10E0A6
:1003B0000F5F1F4F0F731127E02E8C8D8E110CC015
:1003C0000FB607FCFACFE889F989808185FFF5CF60
:1003D000CE010E948C01F1CFEB8DEC0FFD2FF11DB2
:1003E000E35AFF4FF0829FB7F8940B8FEA89FB899D
:1003F00080818062CFCFCF93DF93EC01888D8823FB
:10040000B9F0AA89BB89E889F9898C9185FD03C077
:10041000808186FD0DC00FB607FCF7CF8C9185FF5C
:10042000F2CF808185FFEDCFCE010E948C01E9CF14
:10043000DF91CF9108953FB7F8948091B8079091DC
:10044000B907A091BA07B091BB0726B5A89B05C014
:100450002F3F19F00196A11DB11D3FBFBA2FA92F43
:10046000982F8827BC01CD01620F711D811D911D40
:1004700042E0660F771F881F991F4A95D1F70895AC
:100480004091BC075091BD07E1E7F7E030E020E084
:100490002417350734F491919F3F19F02F5F3F4F98
:1004A000F7CF2F58384FF90180830895AC01861794
:1004B000970714F58091BC079091BD070197849F21
:1004C0009001859F300D949F300D1124FA013197D2
:1004D000E49FC001E59F900DF49F900D112497FDBE
:1004E000019695958795281B390B620F731FCB01D9
:1004F000841B950B01970895681779071CF52091C7
:10050000BC073091BD0721503109269FC001279FAC
:10051000900D369F900D1124FB013197E69F9001BD
:10052000E79F300DF69F300D112437FF02C02F5F7B
:100530003F4F35952795821B930B840F951F861B84
:10054000970BD8CF8FEF9FEF0895FC01019000200B
:10055000E9F73197AF01481B590BBC0188E098E0DF
:100560000C94720082E191E00C94A5028F929F920C
:10057000AF92BF920F931F93CF93DF93CDB7DEB7A8
:10058000A1970FB6F894DEBF0FBECDBF19A24230BF
:1005900008F44AE08E010F5D1F4F842E912CB12C80
:1005A000A12CA50194010E946407E62FB901CA019C
:1005B000EA30F4F4E05DD801EE938D01232B242B77
:1005C000252B79F790E080E0109719F0CD010E947B
:1005D000A502A1960FB6F894DEBF0FBECDBFDF9186
:1005E000CF911F910F91BF90AF909F908F900895E2
:1005F000E95CE1CFCF92DF92EF92FF92CF93DF934E
:100600006B017C016DE288E098E00E94AE01EC0194
:1006100066277727CB016C197D098E099F094AE06F
:100620000E94B6028C0F9D1FDF91CF91FF90EF903B
:10063000DF90CF900895BC01990F880B990B97FD1F
:100640000C94FA024AE00C94B6028617970799F0C8
:100650000E9456028D3C25E0920744F08D5C954047
:100660000E943407082E000C990B0895885E9E4F57
:10067000FC018081F7CF90E080E008950F931F93F5
:10068000CF93DF930E94B202D0E0C0E08091BC071C
:100690009091BD07C817D90724F510E000E08091BC
:1006A000BC079091BD0708171907BCF4B801CE012B
:1006B0000E942503BC01990F880B990B97FF09C075
:1006C0000E94FA0285E191E00E94A5020F5F1F4F90
:1006D000E6CF4AE00E94B602F5CF0E94B202219610
:1006E000D5CFDF91CF911F910F9108958F929F9257
:1006F000AF92BF92CF92DF92EF92FF920F931F9330
:10070000CF93DF938C01C091BC07D091BD07E1E787
:10071000F7E08FEF9F01215737402C173D0754F02A
:10072000EBE2F7E0CF018B5297408C179D0724F442
:100730001192F8CF8193EECFC8010E944002F801D8
:10074000E55DF84F81E08083BB24BA94E1E7F7E0F0
:10075000CF01815797408C179D070CF047C08191BE
:100760008F3FB1F3E1E7F7E090E080E0C817D907E9
:1007700029F021912F3F11F00196F8CFFC01E059AB
:10078000F84F0081002E000C110BB08285EEC82EB0
:1007900086E0D82E4601F12CE12CCE15DF0559F06C
:1007A000B701C8010E942503F40181934F01FFEFB7
:1007B000EF1AFF0AF2CF10E000E00E151F0531F22C
:1007C000F601A1906F01F1E0AF120DC0C801855D87
:1007D000984F4C01FC018081811105C0C8010E9425
:1007E0004002F401A0820F5F1F4FE7CFEBE2F7E07A
:1007F00090E080E09F012B5237402C173D072CF4EE
:1008000021912130B9F70196F5CFDF91CF911F915A
:100810000F91FF90EF90DF90CF90BF90AF909F909F
:100820008F9008951F93CF93DF93182FCB016417F8
:100830007507D1F0BA010E9456028D3C25E092075F
:100840007CF0EC01CD5CD540CE010E943407181736
:1008500059F0612FCE01DF91CF911F910C943C078D
:10086000885E9E4FFC011083DF91CF911F91089508
:100870001F920F920FB60F9211242F933F934F9315
:100880005F936F937F938F939F93AF93BF93EF93F8
:10089000FF9388E098E00E948C01FF91EF91BF9157
:1008A000AF919F918F917F916F915F914F913F9108
:1008B0002F910F900FBE0F901F9018951F920F92BF
:1008C0000FB60F9211242F938F939F93EF93FF9363
:1008D000E0911808F09119088081E0911E08F091CC
:1008E0001F0882FD1BC09081809121088F5F8F734C
:1008F00020912208821741F0E0912108F0E0E85FA2
:10090000F74F958F80932108FF91EF919F918F91E1
:100910002F910F900FBE0F901F9018958081F4CFEC
:100920001F920F920FB60F9211242F933F938F9324
:100930009F93AF93BF938091040890910508A09175
:100940000608B09107083091B70723E0230F2D3731
:1009500058F50196A11DB11D2093B7078093040897
:1009600090930508A0930608B09307088091B807F4
:100970009091B907A091BA07B091BB070196A11D4C
:10098000B11D8093B8079093B907A093BA07B093AD
:10099000BB07BF91AF919F918F913F912F910F9086
:1009A0000FBE0F901F90189526E8230F0296A11DE9
:1009B000B11DD2CF789484B5826084BD84B5816046
:1009C00084BD85B5826085BD85B5816085BD80911A
:1009D0006E00816080936E00109281008091810092
:1009E000826080938100809181008160809381008A
:1009F000809180008160809380008091B10084604C
:100A00008093B1008091B00081608093B0008091AC
:100A10007A00846080937A0080917A00826080936B
:100A20007A0080917A00816080937A0080917A00C8
:100A3000806880937A001092C100E0911808F091CC
:100A4000190882E08083E0911408F0911508108263
:100A5000E0911608F09117088FEC8083109220081F
:100A6000E0911C08F0911D0886E08083E0911A084F
:100A7000F0911B08808180618083E0911A08F091D9
:100A80001B08808188608083E0911A08F0911B0820
:100A9000808180688083E0911A08F0911B08808132
:100AA0008F7D808380E29EE4A0E0B0E080930C081C
:100AB00090930D08A0930E08B0930F0820E0622ECB
:100AC00020E0722E88E098E00E94FB0188E098E028
:100AD0000E946C01892BB1F30E9410017093BD0735
:100AE0006093BC07AB01435051094434510550F7A2
:100AF000072E000C880B990B97FF30C00E94FA025A
:100B00000E94B202D0E0C0E08091BC079091BD0786
:100B1000C817D9074CF510E000E08091BC07909110
:100B2000BD0708171907F4F488E098E00E94FB015C
:100B300088E098E00E946C01892BB1F30E941001BB
:100B4000CB016230710580F7C017D10724F4A801EA
:100B5000BE010E9412040F5F1F4FDFCF4AE00E94C8
:100B6000B602CECF2196D0CF0E943E03C090BC07E4
:100B7000D090BD07D0E0C0E0CC15DD05B4F4F12C79
:100B8000E12C10E000E0B801CE010E94250301979E
:100B900019F42FEFE21AF20A0F5F1F4FC016D106A9
:100BA00091F7E0FC04C02196E7CFD0E0C0E085E1FA
:100BB00091E00E94A502CE010E941B03C090BC07D9
:100BC000D090BD0710E000E0F12CE12C0C151D05C4
:100BD0000CF456C09EEB892E97E0992E8E01C4012D
:100BE0008E5B97408E159F050CF060C0F40101915B
:100BF0004F01002E000C110BB801CE010E942503FD
:100C0000019769F7D12CC12CB12CA12CB501CE01D3
:100C10000E942503019719F4FFEFCF1ADF0A2FEF87
:100C2000A21AB20AEA14FB0489F781E0C816D104BB
:100C3000B9F5C8010E9476035C01A801BE0190E0ED
:100C400080E00E941204C8010E9476036C01A80192
:100C5000BE0181E090E00E941204CA14DB040CF48F
:100C6000BECFA801BE0190E080E00E94120485E1A1
:100C700091E00E94A502C8010E941B03E8019ECFDB
:100C8000B801CE010E942503019739F4F701E2541F
:100C9000F84F00838FEFE81AF80A0F5F1F4F96CFC7
:100CA000E2E0CE16D1040CF09ACFDBCFA801BE0152
:100CB00090E080E00E94120485E191E00E94A5028C
:100CC000C8010E941B03E114F104C1F6C090BC07E7
:100CD000D090BD07D0E0C0E0CC15DD0574F48E01E6
:100CE000B801CE010E942503E80EF91E0F5F1F4FC9
:100CF000C016D106A9F72196EFCF1E141F047CF46D
:100D00000E94B202C8E6D0E016E2115041F0FE01A6
:100D1000649188E098E00E94AE012196F6CF85E1CB
:100D200091E00E94A5020E94B2020E943E030E942E
:100D30001B024B015C0188ECC82ED12CE12CF12C5C
:100D40000E941B02681979098A099B09683E734051
:100D500081059105A8F3F1E0CF1AD108E108F10867
:100D600028EE820E23E0921EA11CB11CC114D104F6
:100D7000E104F10429F783B7817F83BF83B78160E2
:100D800083BF8091640081608093640080916400DF
:100D9000846080936400809164008062809364002A
:100DA0008091640088608093640080916400806416
:100DB000809364008091640080688093640083B7AE
:100DC000816083BF889583B78E7F83BF88E098E07A
:100DD0000E946C01892BD1F30E9410016F3F7F4F5D
:100DE0008F4F9F4F99F783B78E7F83BF80916400A9
:100DF0008071809364006114710409F463CE0E94D1
:100E00007801882309F45ECE0E9400005BCEE8E002
:100E1000F8E01382128288EE93E0A0E0B0E08483D1
:100E20009583A683B78384E091E09183808385ECEA
:100E300090E09587848784EC90E09787868780ECA4
:100E400090E0918B808B81EC90E0938B828B82EC95
:100E500090E0958B848B86EC90E0978B868B118E3F
:100E6000128E138E148E0895F999FECF92BD81BD16
:100E7000F89A992780B50895262FF999FECF1FBAC1
:100E800092BD81BD20BD0FB6F894FA9AF99A0FBEB3
:100E9000019608950E945507A59F900DB49F900D4F
:100EA000A49F800D911D11240895A29FB001B39FAE
:100EB000C001A39F700D811D1124911DB29F700D63
:100EC000811D1124911D0895A1E21A2EAA1BBB1B9E
:100ED000FD010DC0AA1FBB1FEE1FFF1FA217B30706
:100EE000E407F50720F0A21BB30BE40BF50B661F1C
:100EF000771F881F991F1A9469F7609570958095E0
:100F000090959B01AC01BD01CF010895EE0FFF1F2D
:0C0F10000590F491E02D0994F894FFCFB7
:100F1C0000000000AE0172009F00FB016C01AE00EE
:080F2C00C2000D0A00200000C4
:00000001FF
