:020000040000FA
:100000000C9458000C9480000C9480000C94800098
:100010000C9480000C9480000C9480000C94800060
:100020000C9480000C9480000C9480000C94800050
:100030000C9480000C9480000C9480000C94800040
:100040000C9423040C9480000C94F1030C94CB03C7
:100050000C9480000C9480000C9480000C94800020
:100060000C9480000C948000000000002300260007
:10007000290004040404040404040202020202022B
:10008000030303030303010204081020408001025C
:1000900004081020010204081020000000080002DB
:1000A00001000003040700000000000000005107E9
:1000B00011241FBECFEFD8E0DEBFCDBF11E0A0E01E
:1000C000B1E0E0E5FFE002C005900D92AE37B10768
:1000D000D9F727E0AEE7B1E001C01D92A63DB20717
:1000E000E1F710E0C8E5D0E004C02197FE010E94CE
:1000F000A007C735D107C9F70E946D040C94A60765
:100100000C940000AF92BF92CF92DF92EF92FF92D9
:100110000F931F93CF93DF936C017B018B01040F2F
:10012000151FEB015E01AE18BF08C017D10759F0CB
:100130006991D601ED91FC910190F081E02DC6010D
:100140000995892B79F7C501DF91CF911F910F9107
:10015000FF90EF90DF90CF90BF90AF900895FC019B
:10016000538D448D252F30E0842F90E0821B930B1C
:10017000541710F0CF96089501970895FC01918DC2
:10018000828D981761F0A28DAE0FBF2FB11D5D96C5
:100190008C91928D9F5F9F73928F90E008958FEF67
:1001A0009FEF0895FC01918D828D981731F0828D1B
:1001B000E80FF11D858D90E008958FEF9FEF089572
:1001C000FC01918D228D892F90E0805C9F4F821BD6
:1001D00091098F739927089589E397E00E94E000C1
:1001E00021E0892B09F420E0822F089580E090E03F
:1001F000892B29F00E94EC0081110C9400000895D5
:10020000FC01A48DA80FB92FB11DA35ABF4F2C918B
:10021000848D90E001968F739927848FA689B78982
:100220002C93A089B1898C91837080648C93938D79
:10023000848D981306C00288F389E02D80818F7D1C
:1002400080830895EF92FF920F931F93CF93DF93D4
:10025000EC0181E0888F9B8D8C8D98131AC0E88902
:10026000F989808185FF15C09FB7F894EE89FF89D1
:100270006083E889F98980818370806480839FBF6F
:1002800081E090E0DF91CF911F910F91FF90EF906F
:100290000895F62E0B8D10E00F5F1F4F0F7311277F
:1002A000E02E8C8D8E110CC00FB607FCFACFE889BA
:1002B000F989808185FFF5CFCE010E940001F1CF41
:1002C000EB8DEC0FFD2FF11DE35AFF4FF0829FB72E
:1002D000F8940B8FEA89FB8980818062CFCFCF931E
:1002E000DF93EC01888D8823B9F0AA89BB89E8895E
:1002F000F9898C9185FD03C0808186FD0DC00FB604
:1003000007FCF7CF8C9185FFF2CF808185FFEDCF81
:10031000CE010E940001E9CFDF91CF91089590E0D6
:10032000FC01E656FF4F2491FC01EA57FF4F349140
:10033000FC01EE58FF4FE491EE23C1F1222339F086
:100340002330E9F090F4213001F1223011F1F0E096
:10035000EE0FFF1FE859FF4FA591B491EC91E323F5
:1003600081E090E029F580E008952730A9F0283059
:10037000C9F0243061F7809180008F7D03C08091A7
:1003800080008F7780938000E2CF84B58F7784BD23
:10039000DECF84B58F7DFBCF8091B0008F778093C7
:1003A000B000D5CF8091B0008F7DF9CF80E090E094
:1003B00008953FB7F8948091830190918401A091B2
:1003C0008501B091860126B5A89B05C02F3F19F085
:1003D0000196A11DB11D3FBFBA2FA92F982F8827C5
:1003E000BC01CD01620F711D811D911D42E0660FA0
:1003F000771F881F991F4A95D1F708958F929F9272
:10040000AF92BF92CF92DF92EF92FF920E94D901FA
:100410004B015C0184E6C82ED12CE12CF12C0E940A
:10042000D901681979098A099B09683E73408105D9
:100430009105A8F321E0C21AD108E108F10888EE7D
:10044000880E83E0981EA11CB11CC114D104E104E4
:10045000F10429F7FF90EF90DF90CF90BF90AF901D
:100460009F908F900895FC0101900020E9F731974B
:10047000AF01481B590BBC0189E397E00C94820043
:100480008F929F92AF92BF920F931F93CF93DF9360
:10049000CDB7DEB7A1970FB6F894DEBF0FBECDBFC4
:1004A00019A2423008F44AE08E010F5D1F4F842EDE
:1004B000912CB12CA12CA50194010E947E07E62F5E
:1004C000B901CA01EA30F4F4E05DD801EE938D0180
:1004D000232B242B252B79F790E080E0109719F03F
:1004E000CD010E943302A1960FB6F894DEBF0FBE75
:1004F000CDBFDF91CF911F910F91BF90AF909F9093
:100500008F900895E95CE1CFCF92DF92EF92FF9256
:10051000CF93DF936B017C016DE289E397E00E944A
:100520002201EC0166277727CB016C197D098E0922
:100530009F094AE00E9440028C0F9D1FDF91CF91DE
:10054000FF90EF90DF90CF900895CF93DF930E94BC
:100550003302EC0182E191E00E9433028C0F9D1F77
:10056000DF91CF9108952F923F924F925F926F92B9
:100570007F928F929F92AF92BF92CF92DF92EF9233
:10058000FF920F931F93CF93DF9300D000D0CDB78E
:10059000DEB76DB67EB69C01220F331F3A832983E6
:1005A0004DB75EB7421B530B0FB6F8945EBF0FBE3C
:1005B0004DBF4F5F5F4FFA0130E020E0AFEFBFEF7C
:1005C000A193B1932F5F3F4F82179307C9F78DB760
:1005D0009EB7821B930B0FB6F8949EBF0FBE8DBFC4
:1005E000EDB7FEB73196FC83EB838F01CF01820F0D
:1005F000931FDF011D92A817B907E1F77A0190E078
:1006000080E0F701C190D1907F01CD20C09429F006
:10061000019628173907A9F7C901880F991F840F78
:10062000951FFC01718360838B819C81680F791F0A
:1006300081E0FB01808344244A94542CBA0190E069
:1006400080E0FB01E190F190BF01EF20E09451F5D3
:10065000019628173907A9F790E080E0F801219169
:100660008F0121110196A017B107C1F70FB6F894B9
:100670007EBE0FBE6DBE0F900F900F900F90DF915A
:10068000CF911F910F91FF90EF90DF90CF90BF908F
:10069000AF909F908F907F906F905F904F903F9022
:1006A0002F9008952DB63EB6BA0190E080E0FB0190
:1006B000E190F190BF01EF20E09429F00196281716
:1006C0003907A9F7C90181509048880F991F840FF5
:1006D000951FFC0160817181518240828DB79EB768
:1006E000E981FA818E1B9F0B0FB6F8949EBF0FBE57
:1006F0008DBF01964C019CE2969F6001979FD00CA4
:100700001124740170E060E0CB01880F991F8C0DFB
:100710009D1D89579E4FFC0180819181F701819336
:1007200091937F016F5F7F4F2617370769F770E05E
:1007300060E0F401819191914F01019709F5AB803F
:10074000BC80A60EB71EF5018081811119C07A0107
:1007500090E080E0F701C190D1907F01CD20C0945E
:1007600029F0019628173907A9F7C901880F991FA1
:10077000840F951FFC017183608381E0F501808304
:100780006F5F7F4F62177307A1F60FB6F8943EBEF6
:100790000FBE2DBE53CF1F920F920FB60F92112492
:1007A0002F933F934F935F936F937F938F939F9379
:1007B000AF93BF93EF93FF9389E397E00E9400010B
:1007C000FF91EF91BF91AF919F918F917F916F9129
:1007D0005F914F913F912F910F900FBE0F901F90FF
:1007E00018951F920F920FB60F9211242F938F938B
:1007F0009F93EF93FF93E0914907F0914A0780811F
:10080000E0914F07F091500782FD1BC090818091CD
:1008100052078F5F8F7320915307821741F0E09149
:100820005207F0E0E75CF84F958F80935207FF91F5
:10083000EF919F918F912F910F900FBE0F901F906E
:1008400018958081F4CF1F920F920FB60F9211244A
:100850002F933F938F939F93AF93BF9380917F018B
:1008600090918001A0918101B091820130917E012F
:1008700023E0230F2D3758F50196A11DB11D2093BC
:100880007E0180937F0190938001A0938101B093BA
:1008900082018091830190918401A0918501B091A2
:1008A00086010196A11DB11D80938301909384015F
:1008B000A0938501B0938601BF91AF919F918F91D5
:1008C0003F912F910F900FBE0F901F90189526E823
:1008D000230F0296A11DB11DD2CFCF93DF93CDB7C9
:1008E000DEB768970FB6F894DEBF0FBECDBF789421
:1008F00084B5826084BD84B5816084BD85B5826025
:1009000085BD85B5816085BD80916E0081608093D5
:100910006E0010928100809181008260809381003E
:10092000809181008160809381008091800081604E
:10093000809380008091B10084608093B1008091A9
:10094000B00081608093B00080917A0084608093D1
:100950007A0080917A00826080937A0080917A0098
:10096000816080937A0080917A00806880937A0019
:100970001092C100E0914907F0914A0782E080831C
:10098000E0914507F09146071082E0914707F0910A
:1009900048078FEC808310925107E0914D07F0914A
:1009A0004E0786E08083E0914B07F0914C078081F1
:1009B00080618083E0914B07F0914C0780818860D3
:1009C0008083E0914B07F0914C07808180688083A1
:1009D000E0914B07F0914C0780818F7D808385E10A
:1009E00091E00E94A5020E94FE0182E00E948F0118
:1009F000019709F451C283E00E948F01019709F029
:100A00004BC28EE191E00E94A50284E291E00E9437
:100A1000A50224E030E03E832D8342E050E060E018
:100A200070E049835A836B837C83E980FA808DE28E
:100A300091E00E9433024AE069817A818B819C8136
:100A40000E94400282E191E00E94330267E871E077
:100A50007A8769879B0190E080E010E000E0F80170
:100A6000EE0FFF1FE20FF31F118210820F5F1F4F67
:100A70000E151F05A1F70196245D3F4F08171907B2
:100A800061F747E851E030E020E090E080E028178F
:100A9000390749F0FC01EE0FFF1FE40FF51FA1E03D
:100AA000B0E0B183A08301968017910781F72F5F93
:100AB0003F4F445D5F4F2017310739F727E831E09A
:100AC000712C612C50E040E090E080E0FC01EE0FE2
:100AD000FF1FE20FF31F608171816130710511F416
:100AE0004F5F5F4F01968017910781F740FD0AC065
:100AF000BFEF6B1A7B0A245D3F4F6016710611F73A
:100B0000712C612C7092500560924F05EFE4F5E076
:100B1000FE87ED87F887EF8341E050E05C874B87E5
:100B20006DB77EB7788B6F878DB79EB7AD81BE816D
:100B30008A1B9B0B0FB6F8949EBF0FBE8DBF2DB7BF
:100B40003EB72F5F3F4FBCE2B69DC001B79D900DF1
:100B50001124FC01E957FE4FFC8BEB8B312C212C2F
:100B600090E080E0FC01EE0FFF1F4B895C89E40FF1
:100B7000F51F408151814130510551F4F101EE0FD3
:100B8000FF1FE20FF31F918380835FEF251A350A61
:100B900001960817190731F73A8B298B2301912CFD
:100BA000812C86E1869DB001879D700D11247E8B7E
:100BB0006D8B8214930409F49DC0A989BA894D9064
:100BC0005D90BA8BA98BED89FE89E40DF51DEE0FC2
:100BD000FF1FE957FE4F80819181019709F086C080
:100BE000D12CC12C90E080E0FC01EE0FFF1F2B897F
:100BF0003C89E20FF31F208131812130310519F446
:100C00003FEFC31AD30A01962816390669F741E067
:100C1000C416D10409F066C0B201C8010E94B30233
:100C2000988F8F8B56E1549D7001559DF00C1124C7
:100C3000E60CF71CEE0CFF1CB70169577E4F7B01D9
:100C4000DB011D921C92AD88BE88A40CB51CAA0CB9
:100C5000BB1CF501E957FE4F5F0111821082B20102
:100C6000C8010E94B302D701CD92DC92F501D18276
:100C7000C0822F89388D82179307C4F136E1369DE3
:100C8000F001379DF00D1124E40DF51DEE0FFF1F4F
:100C9000E957FE4F11821082349DF001359DF00D11
:100CA0001124E60DF71DEE0FFF1FE957FE4F1182CD
:100CB0001082AF81B88513965C924E9212978F8501
:100CC00098890FB6F8949EBF0FBE8DBFAF81B885CF
:100CD0001296B887AF83EB85FC853196FC87EB874E
:100CE00032011ECFB2E0CB16D10444F2EFEF8E1AE0
:100CF0009E0A5FCF26E1269DF001279DF00D11246D
:100D0000E40DF51DEE0FFF1FE957FE4F1182108213
:100D1000249DF001259DF00D1124E60DF71DEE0F29
:100D2000FF1FE957FE4F11821082AF81B8851396DD
:100D30005C924E9212972114310409F6EF85F889DE
:100D40000FB6F894FEBF0FBEEDBF85E391E00E94A1
:100D5000330267E8A62E61E0B62ED12CC12CF12C0F
:100D6000E12CF701EE0FFF1FEA0DFB1D6081718181
:100D7000072E000C880B990B97FF2DC00E94840250
:100D800083E391E00E943302FFEFEF1AFF0A0E1592
:100D90001F0539F783E391E00E94A5022FEFC21AE5
:100DA000D20A3CE2A30EB11C0C151D05C1F690E061
:100DB00080E09C012017310794F4F901EE0FFF1F2A
:100DC00049855A85E40FF51F40815181240E351E57
:100DD0002F5F3F4FEFCF4AE00E944002D1CF0196F4
:100DE00069857A85645D7F4F7A8769870817190757
:100DF00001F72114310429F08CE491E00E94A5024E
:100E00001EC08EE391E00E94330288E491E00E94CC
:100E10003302AD85BE856D917D91BE87AD87072E6E
:100E2000000C880B990B97FF33C00E948402BFEF20
:100E30002B1A3B0AEB85FC85E215F30531F783E3BA
:100E400091E00E94A50229813A814B815C812F5F4C
:100E50003F4F4F4F5F4F29833A834B835C834D81D4
:100E60005E814E5F5F4F5E834D834E32510509F0C8
:100E7000DCCD0E94FE0160E070E0672B09F4B5CD87
:100E80000E94EC00882309F4B0CD0E940000ADCD93
:100E90004AE00E944002CBCF83E791E00E94A50286
:100EA000E8CFE9E3F7E01382128288EE93E0A0E056
:100EB000B0E084839583A683B78384E091E0918337
:100EC000808385EC90E09587848784EC90E0978719
:100ED000868780EC90E0918B808B81EC90E0938B07
:100EE000828B82EC90E0958B848B86EC90E0978BE4
:100EF000868B118E128E138E148E0895A1E21A2EF7
:100F0000AA1BBB1BFD010DC0AA1FBB1FEE1FFF1FAD
:100F1000A217B307E407F50720F0A21BB30BE40BFD
:100F2000F50B661F771F881F991F1A9469F7609544
:100F30007095809590959B01AC01BD01CF010895FE
:100F4000EE0FFF1F0590F491E02D0994F894FFCF68
:100F50000000000022018200AF006F01E000BE002F
:100F6000D2000D0A000A53544152543A20004F5007
:100F7000432031000A0A544553544553000A53494B
:100F80005A453A20000A475241464F3A0A000A435E
:100F9000414D494E484F20002D3E20000A4F20670A
:100FA0007261666F206EC3A36F20706F7373756973
:100FB000207472696C68612065756C657269616E18
:0E0FC000612100526F646120746573746500D6
:107E0000112484B714BE81FFF0D085E080938100F7
:107E100082E08093C00088E18093C10086E0809377
:107E2000C20080E18093C4008EE0C9D0259A86E02C
:107E300020E33CEF91E0309385002093840096BBD3
:107E4000B09BFECF1D9AA8958150A9F7CC24DD24C4
:107E500088248394B5E0AB2EA1E19A2EF3E0BF2EE7
:107E6000A2D0813461F49FD0082FAFD0023811F036
:107E7000013811F484E001C083E08DD089C08234E0
:107E800011F484E103C0853419F485E0A6D080C0E4
:107E9000853579F488D0E82EFF2485D0082F10E0AE
:107EA000102F00270E291F29000F111F8ED06801E7
:107EB0006FC0863521F484E090D080E0DECF843638
:107EC00009F040C070D06FD0082F6DD080E0C81688
:107ED00080E7D80618F4F601B7BEE895C0E0D1E017
:107EE00062D089930C17E1F7F0E0CF16F0E7DF06D8
:107EF00018F0F601B7BEE89568D007B600FCFDCFD4
:107F0000A601A0E0B1E02C9130E011968C91119780
:107F100090E0982F8827822B932B1296FA010C0160
:107F200087BEE89511244E5F5F4FF1E0A038BF0790
:107F300051F7F601A7BEE89507B600FCFDCF97BE46
:107F4000E89526C08437B1F42ED02DD0F82E2BD052
:107F50003CD0F601EF2C8F010F5F1F4F84911BD097
:107F6000EA94F801C1F70894C11CD11CFA94CF0C13
:107F7000D11C0EC0853739F428D08EE10CD085E9AC
:107F80000AD08FE07ACF813511F488E018D01DD067
:107F900080E101D065CF982F8091C00085FFFCCF94
:107FA0009093C60008958091C00087FFFCCF809118
:107FB000C00084FD01C0A8958091C6000895E0E648
:107FC000F0E098E1908380830895EDDF803219F02E
:107FD00088E0F5DFFFCF84E1DECF1F93182FE3DFCA
:107FE0001150E9F7F2DF1F91089580E0E8DFEE27F6
:047FF000FF270994CA
:027FFE00040479
:00000001FF
