:100000000C9462000C948A000C948A000C948A0070
:100010000C948A000C948A000C948A000C948A0038
:100020000C948A000C948A000C948A000C948A0028
:100030000C948A000C948A000C948A000C948A0018
:100040000C945B030C948A000C9429030C94030316
:100050000C948A000C948A000C948A000C948A00F8
:100060000C948A000C948A000000000023002600F3
:10007000290000000008000201000003040700003E
:1000800000000000000000000000250028002B00F8
:1000900000000000240027002A00040404040404D3
:1000A0000404020202020202030303030303010227
:1000B00004081020408001020408102001020408F6
:1000C0001020BA0411241FBECFEFD8E0DEBFCDBF91
:1000D00011E0A0E0B1E0E2E2FAE002C005900D928A
:1000E000A032B107D9F726E0A0E2B1E001C01D922D
:1000F000A83AB207E1F710E0C2E6D0E004C02197C9
:10010000FE010E940905C136D107C9F70E94A50367
:100110000C940F050C940000CF93DF9390E0FC014A
:10012000E255FF4F249186569F4FFC01849188230E
:10013000C1F090E0880F991FFC01E057FF4FC59177
:10014000D491FC01EA57FF4FA591B4919FB7F89461
:100150008881E22FE0958E2388838C91E823EC93AD
:100160009FBFDF91CF910895AF92BF92CF92DF9260
:10017000EF92FF920F931F93CF93DF936C017B015C
:100180008B01040F151FEB015E01AE18BF08C017ED
:10019000D10759F06991D601ED91FC910190F08160
:1001A000E02DC6010995892B79F7C501DF91CF9123
:1001B0001F910F91FF90EF90DF90CF90BF90AF9085
:1001C0000895FC01538D448D252F30E0842F90E05D
:1001D000821B930B541710F0CF9608950197089542
:1001E000FC01918D828D981761F0A28DAE0FBF2F0B
:1001F000B11D5D968C91928D9F5F9F73928F90E061
:1002000008958FEF9FEF0895FC01918D828D9817CF
:1002100031F0828DE80FF11D858D90E008958FEF0C
:100220009FEF0895FC01918D228D892F90E0805CD5
:100230009F4F821B91098F73992708958BE096E059
:100240000E94120121E0892B09F420E0822F0895F9
:1002500080E090E0892B29F00E941E0181110C940E
:1002600000000895FC01A48DA80FB92FB11DA35A59
:10027000BF4F2C91848D90E001968F739927848FC6
:10028000A689B7892C93A089B1898C9183708064E9
:100290008C93938D848D981306C00288F389E02D8A
:1002A00080818F7D80830895EF92FF920F931F933B
:1002B000CF93DF93EC0181E0888F9B8D8C8D981319
:1002C0001AC0E889F989808185FF15C09FB7F89425
:1002D000EE89FF896083E889F98980818370806471
:1002E00080839FBF81E090E0DF91CF911F910F91BC
:1002F000FF90EF900895F62E0B8D10E00F5F1F4FCB
:100300000F731127E02E8C8D8E110CC00FB607FCD9
:10031000FACFE889F989808185FFF5CFCE010E9467
:100320003201F1CFEB8DEC0FFD2FF11DE35AFF4FA2
:10033000F0829FB7F8940B8FEA89FB8980818062F5
:10034000CFCFCF93DF93EC01888D8823B9F0AA89B2
:10035000BB89E889F9898C9185FD03C0808186FD80
:100360000DC00FB607FCF7CF8C9185FFF2CF8081CF
:1003700085FFEDCFCE010E943201E9CFDF91CF9111
:10038000089590E0FC01EE58FF4F2491FC01E255E6
:10039000FF4F3491FC01E656FF4FE491EE23C1F18B
:1003A000222339F02330E9F090F4213001F122309A
:1003B00011F1F0E0EE0FFF1FE859FF4FA591B49146
:1003C000EC91E32381E090E029F580E00895273067
:1003D000A9F02830C9F0243061F7809180008F7D2A
:1003E00003C0809180008F7780938000E2CF84B536
:1003F0008F7784BDDECF84B58F7DFBCF8091B00039
:100400008F778093B000D5CF8091B0008F7DF9CFEA
:1004100080E090E008953FB7F89480912501909195
:100420002601A0912701B091280126B5A89B05C0FF
:100430002F3F19F00196A11DB11D3FBFBA2FA92F63
:10044000982F8827BC01CD01620F711D811D911D60
:1004500042E0660F771F881F991F4A95D1F70895CC
:100460008F929F92AF92BF92CF92DF92EF92FF92C4
:100470000E940B024B015C0184E6C82ED12CE12CBA
:10048000F12C0E940B02681979098A099B09683EC0
:10049000734081059105A8F321E0C21AD108E10853
:1004A000F10888EE880E83E0981EA11CB11CC114CF
:1004B000D104E104F10429F7FF90EF90DF90CF9091
:1004C000BF90AF909F908F900895FC010190002005
:1004D000E9F73197AF01481B590BBC018BE096E05F
:1004E0000C94B4008F929F92AF92BF920F931F9380
:1004F000CF93DF93CDB7DEB7A1970FB6F894DEBFE9
:100500000FBECDBF19A2423008F44AE08E010F5D44
:100510001F4F842E912CB12CA12CA50194010E9477
:10052000E704E62FB901CA01EA30F4F4E05DD8012E
:10053000EE938D01232B242B252B79F790E080E07F
:10054000109719F0CD010E946502A1960FB6F8949C
:10055000DEBF0FBECDBFDF91CF911F910F91BF9036
:10056000AF909F908F900895E95CE1CFCF93DF9398
:100570000E946502EC0182E191E00E9465028C0F0D
:100580009D1FDF91CF910895CF93DF934AE062EEF4
:1005900074E080E090E00E947202EC0182E191E060
:1005A0000E9465028C0F9D1FDF91CF910895CF921D
:1005B000DF92EF92FF92CF93DF9397FF1BC06B0107
:1005C0007C016DE28BE096E00E945401EC0166270D
:1005D0007727CB016C197D098E099F094AE00E949B
:1005E00072028C0F9D1FDF91CF91FF90EF90DF90F3
:1005F000CF9008954AE0DF91CF91FF90EF90DF9088
:10060000CF900C9472021F920F920FB60F9211248A
:100610002F933F934F935F936F937F938F939F930A
:10062000AF93BF93EF93FF938BE096E00E9432016C
:10063000FF91EF91BF91AF919F918F917F916F91BA
:100640005F914F913F912F910F900FBE0F901F9090
:1006500018951F920F920FB60F9211242F938F931C
:100660009F93EF93FF93E0911B06F0911C0680810E
:10067000E0912106F091220682FD1BC090818091BD
:1006800024068F5F8F7320912506821741F0E09139
:100690002406F0E0E55FF94F958F80932406FF91E3
:1006A000EF919F918F912F910F900FBE0F901F9000
:1006B00018958081F4CF1F920F920FB60F921124DC
:1006C0002F933F938F939F93AF93BF93809121017B
:1006D00090912201A0912301B09124013091200139
:1006E00023E0230F2D3758F50196A11DB11D20934E
:1006F00020018093210190932201A0932301B093C4
:1007000024018091250190912601A0912701B091AB
:1007100028010196A11DB11D80932501909326010A
:10072000A0932701B0932801BF91AF919F918F9122
:100730003F912F910F900FBE0F901F90189526E8B4
:10074000230F0296A11DB11DD2CF789484B582608B
:1007500084BD84B5816084BD85B5826085BD85B565
:10076000816085BD80916E00816080936E001092E3
:10077000810080918100826080938100809181005E
:1007800081608093810080918000816080938000EF
:100790008091B10084608093B1008091B00081604D
:1007A0008093B00080917A00846080937A00809179
:1007B0007A00826080937A0080917A0081608093D1
:1007C0007A0080917A00806880937A001092C1004C
:1007D00082E00E948C0083E00E948C00E0911B0666
:1007E000F0911C0682E08083E0911706F0911806D4
:1007F0001082E0911906F0911A068FEC8083109216
:100800002306E0911F06F091200686E08083E091A8
:100810001D06F0911E06808180618083E0911D0697
:10082000F0911E06808188608083E0911D06F09122
:100830001E06808180688083E0911D06F0911E066F
:1008400080818F7D808385E191E00E94B6020E94C5
:10085000C4020E9430022BE0222E26E0322E30E02D
:10086000832E30E0932E82E00E94C101019719F09F
:1008700083E00E94C10109E211E05801C12CD12C92
:100880007601412C512C3201D0E0C0E0FE01EE0F88
:10089000FF1FEA0DFB1DCE018C0D9D1D91838083F2
:1008A000C301B2016C0D7D1D8E1D9F1D0E94D702DC
:1008B0008BE191E00E946502C701B6010E94D70258
:1008C0008DE191E00E946502C301B2010E94D7024E
:1008D00089E191E00E94650221968FEF481A580A3B
:1008E000680A780AC931D10589F689E191E00E9448
:1008F000B60282E3A80EB11C8FEFC81AD80AE80A24
:10090000F80A89E1C816D104E104F10409F0B9CF6D
:100910000E94C402D0E0C0E0FE01EE0FFF1FE00F16
:10092000F11F60817181072E000C880B990B0E94CA
:10093000D70289E191E00E9465022196C931D10573
:1009400059F789E191E00E94B6020E5C1F4F201614
:10095000310601F70E94C4020E9430028114910402
:1009600009F481CF0E941E01882309F47CCF0E94E4
:10097000000079CFEBE0F6E01382128288EE93E07C
:10098000A0E0B0E084839583A683B78384E091E000
:100990009183808385EC90E09587848784EC90E058
:1009A0009787868780EC90E0918B808B81EC90E03C
:1009B000938B828B82EC90E0958B848B86EC90E01D
:1009C000978B868B118E128E138E148E0895A1E252
:1009D0001A2EAA1BBB1BFD010DC0AA1FBB1FEE1FB9
:1009E000FF1FA217B307E407F50720F0A21BB30B04
:1009F000E40BF50B661F771F881F991F1A9469F780
:100A000060957095809590959B01AC01BD01CF01DB
:100A10000895EE0FFF1F0590F491E02D0994F894CE
:020A2000FFCF06
:100A2200000000005401B400E100A1011201F00035
:100A320004010D0A0054616D3A20003D002D0000B2
:00000001FF
